:020000040800F2
:100000000000012071050008510D0008530D000883
:10001000550D0008570D0008590D0008000000009C
:100020000000000000000000000000005B0D000860
:100030005D0D0008000000005F0D0008610D000864
:10004000C1050008C1050008C1050008C105000878
:10005000C1050008C10500086D0D0008C1050008B4
:10006000C1050008C1050008770D0008810D0008D2
:10007000910D0008A10D0008C1050008C105000888
:10008000C1050008C1050008B10D0008C105000840
:10009000C1050008C1050008C1050008C105000828
:1000A000C1050008C1050008C1050008C105000818
:1000B000C10500080000000000000000C10D00089C
:1000C000D10D0008C1050008C1050008E10D0008B8
:1000D000C1050008F10D0008C1050008C1050008B0
:1000E000C1050008C1050008000000000000000074
:1000F0000000000000000000000000000000000000
:1001000000000000C105000800000000C105000853
:100110000000000000000000C1050008010E0008FA
:10012000C1050008C1050008C1050008C105000897
:10013000C1050008000000000000000000000000F1
:10014000C1050008C1050008C10500080000000045
:10015000C1050008C1050008C1050008C105000867
:10016000C1050008C1050008C10500080000000025
:10017000C1050008C10500080000000000000000E3
:10018000C1050008C1050008C10500080000000005
:1001900010B5054C237833B9044B13B10448AFF3C1
:1001A00000800123237010BD8000002000000000AB
:1001B000984E000808B5034B1BB103490348AFF341
:1001C000008008BD0000000084000020984E000858
:1001D00053B94AB9002908BF00281CBF4FF0FF31AE
:1001E0004FF0FF3000F072B9ADF1080C6DE904CEAC
:1001F00000F006F8DDF804E0DDE9022304B0704702
:100200002DE9F047089E04468846002B4BD18A42D0
:10021000154667D9B2FA82F24AB1C2F1200701FA53
:1002200002F320FA07F7954047EA030894404FEAA3
:10023000154E230CB8FBFEF71FFA85FC0EFB178842
:1002400043EA084307FB0CF1994209D9EB1807F17F
:10025000FF3080F01B81994240F21881023F2B440D
:100260005B1AA4B2B3FBFEF00EFB103344EA034466
:1002700000FB0CFCA44509D92C1900F1FF3380F0D8
:100280000781A44540F2048102382C4440EA07402B
:10029000A4EB0C0400271EB1D4400023C6E90043A0
:1002A0003946BDE8F0878B4209D9002E00F0EB807B
:1002B0000027C6E9000138463946BDE8F087B3FAA1
:1002C00083F7002F47D18B4202D3824200F2FA809B
:1002D000841A61EB030301209846002EE0D0C6E9A2
:1002E0000048DDE702B9FFDEB2FA82F2002A40F0F0
:1002F0008F80491B4FEA154E1FFA85F80127B1FB85
:10030000FEFC230C0EFB1C1143EA014308FB0CF11D
:10031000994207D9EB180CF1FF3002D2994200F252
:10032000CD808446591AA3B2B1FBFEF00EFB101427
:1003300043EA044408FB00F8A04507D92C1900F152
:10034000FF3302D2A04500F2B6801846A4EB0804A1
:1003500040EA0C409FE7C7F1200CBB4022FA0CFE9C
:100360004EEA030E01FA07F420FA0CF521FA0CF319
:100370004FEA1E482543B3FBF8F92C0C08FB193350
:100380001FFA8EFA44EA034309FB0AF49C4202FA7C
:1003900007F200FA07F10BD91EEB030309F1FF3056
:1003A00080F087809C4240F28480A9F10209734466
:1003B0001B1BADB2B3FBF8F008FB103345EA034456
:1003C00000FB0AFAA24508D91EEB040400F1FF3332
:1003D0006BD2A24569D90238744440EA0940A0FBB7
:1003E0000289A4EB0A044C45C2464B4654D351D073
:1003F000002E69D0B1EB0A0564EB030404FA0CFC8F
:10040000FD40FC404CEA0505C6E90054002747E7DB
:10041000C2F1200320FA03F7954001FA02F021FA15
:1004200003F34FEA154E3843010CB3FBFEF71FFAF6
:1004300085F80EFB173341EA034107FB08F38B42B3
:1004400004FA02F407D9691807F1FF3C2FD28B4256
:100450002DD9023F2944CB1A81B2B3FBFEF00EFB2B
:10046000103341EA034100FB08F38B4207D96918B6
:1004700000F1FF3C17D28B4215D902382944C91A22
:1004800040EA07473BE73746304609E70746E7E6D5
:100490001846FBE64145ABD2B8EB020A69EB0E0207
:1004A00001381346A4E76046E9E7184695E7674632
:1004B000D1E781467CE702382C4447E7ACF1020CD7
:1004C0002B442FE7384608E73746E9E6704700BF78
:1004D00001F0FF01102A2BDB10F0070F08D010F8F5
:1004E000013B013A8B422DD010F0070F42B3F6D1F9
:1004F000F0B441EA012141EA014122F007047FF012
:1005000000070023F0E80256083C85EA010586EA68
:10051000010685FA47F5A3FA87F586FA47F6A5FAA4
:1005200087F68EB9EED1F0BC01F0FF0102F00702B0
:1005300032B110F8013B013A83EA010313B1F8D15B
:100540000020704701387047002D06BF354603383C
:10055000073815F0010F07D1013015F4807F02BF75
:10056000013015F4C03F0130F0BC0138704700BFC6
:10057000DFF834D0002103E00C4B5B5843500431CA
:100580000B480C4B42189A42F6D30B4A02E0002368
:1005900042F8043B094B9A42F9D300F039FC03F0CE
:1005A0002FFD00F01FFAFEE70000012018500008A0
:1005B0000000002080000020800000209803002020
:1005C000FEE7000070B588B02C4BDA6C42F00402F4
:1005D000DA64DA6C02F004020092009ADA6C42F0FB
:1005E0000102DA64DA6C02F001020192019ADA6C1B
:1005F00042F00202DA64DB6C03F002030293029B16
:100600001F4E00224FF44041304601F0E9FA00222B
:1006100001214FF0904001F0E3FA4FF4404303937F
:100620000125049500240594069403A9304601F0A1
:100630000DFA039504950594069403A94FF0904094
:1006400001F004FA042303930494059403A94FF0E2
:10065000904001F0FBF9102303930A4E0496059491
:1006600003A94FF0904001F0F1F903950496059429
:1006700003A9054801F0EAF908B070BD0010024076
:1006800000080048000011100004004800B583B0C5
:10069000124B9A6C42F001029A649B6C03F00103C6
:1006A0000193019B002211460B2001F05DF80B2005
:1006B00001F08EF8002211460C2001F055F80C20B4
:1006C00001F086F8002211460D2001F04DF80D20B2
:1006D00001F07EF803B05DF804FB00BF001002409B
:1006E00008B5002211460A2001F03EF80A2001F068
:1006F0006FF800221146062001F036F8062001F0BE
:1007000067F808BD00B583B00C4B19884FF0007333
:10071000009303230A4A0B4802F090FA28B1074BD2
:1007200000221A6003B05DF804FB044A1368013329
:100730001360012000F0C8FBF4E700BF9C0000201C
:100740000000002070020020FEE7000008B50F48FE
:100750000F4B03600023436083604FF47062C260FC
:10076000036143614FF400728261036243628362FA
:100770000722C2620363436302F04BFE00B908BD67
:100780004FF4D4710348FFF7DFFF00BF0C020020D5
:1007900000300140F84E000808B51148114B0360C5
:1007A00003F1004303F57C2303F25F53436000230E
:1007B00083601222C2600122026143618361C361CE
:1007C000036243628362C36248F2D033036302F080
:1007D000BEF900B908BD40F28F110348FFF7B4FF1E
:1007E0007002002000540040F84E000808B50C4884
:1007F0000C4B03604FF4E133436000238360C3601C
:1008000003610C2242618361C3610362436203F0AE
:10081000C3FB00B908BD4FF4EB710348FFF794FF29
:100820001401002000380140F84E000800B585B0E2
:100830000F48104B0360002343608360C3608361F3
:1008400002F0E4FF50B900230193039301A9084883
:1008500002F0F6FF38B905B05DF804FB4FF4DD7126
:100860000548FFF771FF40F2C1110348FFF76CFF25
:100870000803002000140040F84E000800B587B0BF
:100880001B481C4B0360002343608360C36003610B
:1008900004224261037643760122C26180F820304F
:1008A0008362C36280F83030436380F8383000F0F0
:1008B0001BFB90B9104B0093062301930023029376
:1008C0007F2203920422049205936946084800F0AF
:1008D0001BFD38B907B05DF804FB4FF4B57107484C
:1008E000FFF732FF40F277110448FFF72DFF00BFFA
:1008F000B00000200000045040002019F84E00080D
:1009000000B5AFB010231D9301222392002324933E
:1009100060232593022327932892299228222A9242
:1009200007222B922C932D931DA801F071FA002819
:1009300040D10F2318930323199300231A931B9379
:100940001C93042118A801F03DFD002837D144F282
:1009500041030193002309930D934FF080531593A6
:100960000123029303931023049307230593022387
:10097000069307934FF08073089301A801F0ACFE33
:1009800010BB4FF4007001F047F910BB01F0C4FD3B
:10099000124BA3FB0030800900F026FF042000F07A
:1009A00039FF002211464FF0FF3000F0DDFE2FB07E
:1009B0005DF804FB4FF487710948FFF7C5FE4FF45B
:1009C0008E710748FFF7C0FE40F22D110448FFF773
:1009D000BBFE4FF49A710248FFF7B6FED34D62108A
:1009E000F84E000808B500F051FAFFF789FFFFF74D
:1009F000E9FDFFF74BFEFFF7A9FEFFF7CDFEFFF77E
:100A0000F5FEFFF713FFFFF739FFFFF769FE24201C
:100A100003F022FBFFF776FEFFF774FEFFF772FE8E
:100A2000FFF770FEFFF76EFEFCE7000000B583B035
:100A3000214B1A6E42F001021A661A6E02F0010290
:100A40000092009A9A6D42F080529A659B6D03F075
:100A500080530193019B032000F074FE0022114695
:100A60006FF00B0000F080FE002211466FF00A00CC
:100A700000F07AFE002211466FF0090000F074FECB
:100A8000002211466FF0040000F06EFE00221146B5
:100A90006FF0030000F068FE002211466FF00100C5
:100AA00000F062FE002211464FF0FF3000F05CFEC5
:100AB00003B05DF804FB00BF001002400268224B47
:100AC0009A4200D0704730B587B0044603F17043B6
:100AD000A3F5F833DA6C42F40052DA64DB6C03F409
:100AE00000530093009B0A2301930B2302930025DC
:100AF000039501A94FF0904000F0A8FF1348144B54
:100B0000036045608560C560802303614FF4807396
:100B100043614FF480638361C561056200F090FE1C
:100B200060B90A4BE3649C6200221146122000F077
:100B30001BFE122000F04CFE07B030BD78210548A6
:100B4000FFF702FEEDE700BF000004508C0100201B
:100B500008000240284F000802681A4B9A4200D051
:100B6000704700B587B04FF4C0630193122302931E
:100B70000123039303230493042305930DEB030143
:100B80004FF0904000F062FF0F4B9A6D42F400125C
:100B90009A659B6D03F400130093009B002211469D
:100BA0001F2000F0E1FD1F2000F012FE0022114680
:100BB000202000F0D9FD202000F00AFE07B05DF8EB
:100BC00004FB00BF00540040001002400268334B99
:100BD0009A4200D0704730B587B0044603F56043B1
:100BE0001A6E42F480521A661B6E03F4805300930F
:100BF000009BE02301930223029300250395032326
:100C000004930523059301A94FF0904000F01EFFC7
:100C10002348244B0360012343608560C560802323
:100C200003614FF4807343614FF480638361C56156
:100C3000056200F005FE28BB194BA3659C621A48AB
:100C40001A4B036001234360102383600023C360B9
:100C5000802202614FF4807242614FF480628261AF
:100C6000C361036200F0ECFD90B90F4B63659C62B9
:100C700000221146232000F077FD232000F0A8FD7C
:100C800007B030BD40F207110948FFF75DFDD3E71B
:100C90004FF48C710648FFF757FDE6E7003001403E
:100CA000C00200201C000240480300203000024027
:100CB000284F000802680E4B9A4200D0704700B5DA
:100CC00083B003F5FE339A6D42F020029A659B6D66
:100CD00003F020030193019B00221146372000F00E
:100CE00043FD372000F074FD03B05DF804FB00BF46
:100CF000001400400268144B9A4200D0704710B5AF
:100D000086B003F558431A6E42F480421A661B6E91
:100D100003F480430093009BC023019302230293BA
:100D200000240394032304930723059301A9074890
:100D300000F08CFE22462146252000F015FD2520DE
:100D400000F046FD06B010BD003801400004004828
:100D50007047FEE7FEE7FEE7FEE770477047704723
:100D600008B500F0A3F800F066FD08BD08B5012045
:100D700000F03CFF08BD08B5102000F037FF08BDAB
:100D800008B5024800F000FE08BD00BF8C0100203D
:100D900008B5024800F0F8FD08BD00BFC002002001
:100DA00008B5024800F0F0FD08BD00BF4803002070
:100DB00008B5024800F08DF908BD00BFB000002062
:100DC00008B5024802F0B6FA08BD00BF7002002064
:100DD00008B5024802F01DF808BD00BF70020020EF
:100DE00008B5024802F06EFB08BD00BF0C020020EF
:100DF00008B5024802F076FD08BD00BF14010020CE
:100E000008B5024802F0FCFB08BD00BF0803002043
:100E10000F49D1F8883043F47003C1F888300D4B86
:100E20001A6842F001021A60002098601A6822F0E5
:100E3000A85222F410221A604FF48052DA601A6825
:100E400022F480221A6098614FF000638B60704733
:100E500000ED00E00010024010B50446094B186890
:100E6000094BA3FB0030800900F0BEFC08B1012053
:100E700010BD002221464FF0FF3000F075FC00202D
:100E8000F6E700BF14000020D34D621010B5032018
:100E900000F058FC0020FFF7DFFF10B101242046CE
:100EA00010BD0446FFF7C2FDF9E70000024A1368CF
:100EB00001331360704700BF90030020014B186896
:100EC000704700BF9003002038B50446FFF7F6FFD7
:100ED0000546B4F1FF3F00D00134FFF7EFFF401BA0
:100EE000A042FAD338BD000030B583B0002301938F
:100EF000002800F0DE800446436D03B323689A683F
:100F000012F0005F05D09A6822F0204222F03F02E2
:100F10009A602268936813F0805F1DD1936823F074
:100F2000104323F03F0343F080539360624B1B68F0
:100F30009B09624AA2FB03239B09019309E0FFF787
:100F4000BDFD0023A36584F85030D7E7019B013B2A
:100F50000193019B002BF9D123689A6812F0805FFE
:100F600078D1626D42F010026265A26D42F001021A
:100F7000A26501209A6812F0040F6DD00121626D04
:100F800012F0100F40F08E80002940F08B80626DCF
:100F900022F4817242F0020262659B6813F0010F35
:100FA0000BD1474B9B6813F0010F06D1636845498D
:100FB0008A6822F47C1213438B60627E636B43EA7F
:100FC0004233E2681343A268134394F8202043EAB3
:100FD0000243012A42D0A26A22B102F47072E16A8D
:100FE0000A4313432168CD68374A2A401343CB6034
:100FF00023689A6812F0040F35D001219A6812F024
:10100000080F32D00122B1B9AAB9217E94F830205C
:10101000520042EA8131DA6822F4804222F0020270
:101020000A43DA6094F83830012B20D02268136923
:1010300023F0010313612369012B2AD02268136B6B
:1010400023F00F031363636D23F0030343F00103E5
:1010500063652CE000208DE7002190E7626A013A89
:1010600043EA4243B7E70021C8E70022CBE7216803
:101070000B6923F4FF6323F00403E26B256C2A431E
:10108000656C2A43A56C2A43134343F001030B61AB
:10109000D1E721680B6B23F00F03E269013A134398
:1010A0000B63D0E7636D43F010036365012003B069
:1010B00030BD0120FBE700BF14000020632D3E057A
:1010C000000004500003045007C0F0FF7047704751
:1010D000704770B5044603681D685E6815F0020F1E
:1010E00010D016F0020F0DD0436D13F0100F03D186
:1010F000436D43F400634365204600F021FB236801
:1011000002221A6015F0040F02D016F0040F05D168
:1011100015F0080F3AD016F0080F37D0636D13F0B2
:10112000100F03D1636D43F4007363652368DA68BD
:1011300012F4406F24D1DA6812F4005F20D11A68EB
:1011400012F0080F1CD09A6812F0040F10D15A68E0
:1011500022F00C025A60636D23F480736365636D43
:1011600013F4805F0CD1636D43F00103636507E006
:10117000636D43F010036365A36D43F00103A36542
:101180002046FFF7A3FF23680C221A6015F0200FFA
:1011900002D016F0200F05D115F0400F4CD016F0FC
:1011A000400F49D0636D13F0100F03D1636D43F40A
:1011B000005363652368DA6C12F0C00F2AD1012155
:1011C000DA6812F4406F27D10120DA6831B912F0E1
:1011D000007F2BD150B312F4005F27D1196811F0B2
:1011E000400F23D012F4001F20D19A6812F0080F8C
:1011F00014D15A6822F060025A60636D23F4805360
:101200006365636D13F4807F10D1636D43F0010358
:1012100063650BE00021D3E70020D6E7636D43F060
:1012200010036365A36D43F00103A365204600F03E
:1012300083FA236860221A6015F0800F02D016F03E
:10124000800F2DD115F4807F02D016F4807F32D12B
:1012500015F4007F02D016F4007F38D115F0100F7E
:1012600017D016F0100F14D0636B23B12368DB681E
:1012700013F0010F0AD0636D43F480636365A36DBF
:1012800043F00203A3652046FFF722FF23681022E4
:101290001A6015F4806F02D016F4806F23D170BDF0
:1012A000636D43F4803363652046FFF710FF2368C6
:1012B00080221A60C6E7636D43F4003363652046FD
:1012C00000F03CFA23684FF480721A60C0E7636D47
:1012D00043F480236365204600F031FA23684FF41D
:1012E00000721A60BAE7636D43F480436365A36DCF
:1012F00043F00803A36523684FF480621A60204618
:1013000000F01BFACBE70000F0B482B0002201929B
:1013100090F85020012A00F008820346012280F84C
:1013200050200268926812F0040F0AD0426D42F019
:10133000200242650120002283F8502002B0F0BC58
:1013400070474A68052A09D8023A032A00F28D80BC
:10135000DFE802F0028184870C224A601E684D6833
:101360000C6830362A0A920002F00C02B05805F0E0
:101370001F051F27AF4020EA0700C4F38464AC4078
:101380002043B0501A68906810F0040F70D001200C
:10139000946814F0080F6DD0012450BB4CBB0E684C
:1013A0008C681432700E800000F004001558C6F3EB
:1013B00004560727B74025EA0705B4402C431450CC
:1013C00048691C68E268C2F3C102520000FA02F2E6
:1013D0000D69042D50D00E68603454F82570B7485C
:1013E000384006F0F8463243104340F0004044F8DD
:1013F00025001868826812F0010F15D10A68CD68BF
:10140000D0F8B040C2F3120624EA060405F018062C
:10141000AB4DF5402A40C2F312022243C0F8B0207F
:10142000C868A84A90427AD00A68A7490A4200F0E0
:101430007881A649896801F0E074A548824200F0ED
:101440000C81A448824200F02E81A348824200F021
:10145000558100206FE712224A607FE718224A6018
:101460007CE74FF480724A6078E706224A6075E7AD
:1014700000208DE7002490E7206EC0F384650A68A1
:10148000C2F312065EBBC2F3846295422CD01C6884
:10149000606EC0F384650A68C2F3120646BBC2F3ED
:1014A0008462954229D01C68A06EC0F384650A68E6
:1014B000C2F312062EBBC2F38462954226D01C688A
:1014C000E06EC0F384650A68C2F3120616BBC2F36D
:1014D000846295428DD120F00040E06689E792FA5F
:1014E000A2F2B2FA82F2D0E720F000402066CEE706
:1014F00092FAA2F2B2FA82F2D3E720F000406066DC
:10150000D1E792FAA2F2B2FA82F2D6E720F00040D6
:10151000A066D4E792FAA2F2B2FA82F2D9E71D6885
:101520000A68C2F3120696BB900E013000F01F004D
:1015300009288CBF00200120002852D09EBB940EA9
:101540000134A40604F0F844B6BB900E013000F05C
:101550001F070120B8400443C6BB920E013202F0BF
:101560001F0202EB4202120522438C681435500E12
:10157000800000F004002E58C2F304520727974061
:1015800026EA070604FA02F232432A504CE792FA9E
:10159000A2F0B0FA80F0013000F01F0009288CBFE3
:1015A00000200120C8E792FAA2F4B4FA84F40134CE
:1015B000A40604F0F844C7E792FAA2F0B0FA80F06B
:1015C000013000F01F070120B840C4E792FAA2F2F0
:1015D000B2FA82F2013202F01F0202EB420212055D
:1015E000C2E7CEB9940E0134A40604F0F844E6B97B
:1015F000900E013000F01F070120B8400443F6B9F7
:10160000900E013000F01F0000EB40021E3A120560
:1016100042F000722243A8E792FAA2F4B4FA84F4EA
:101620000134A40604F0F844E1E792FAA2F0B0FA1B
:1016300080F0013000F01F070120B840DEE792FA89
:10164000A2F0B0FA80F0013000F01F0000EB400281
:101650001E3A120542F00072DCE711F4000F7FF42D
:10166000F0AE19681D4A914201D0002063E644F4AF
:1016700000021648816821F0E0710A438260184A2E
:10168000126892091749A1FB0212920902EB420269
:101690009100019102E0019A013A0192019A002A17
:1016A000F9D1002047E611F0807F7FF4CEAE1968B3
:1016B0000A4A914218D000203DE600BF00F0FF0327
:1016C000FFFF070000007F40000008800003045077
:1016D000000052C7000084CB0100008000000450CD
:1016E00014000020632D3E0544F08072104881688C
:1016F00021F0E0710A43826000201CE611F4800FA3
:1017000011D119680B4A914201D0002013E644F42C
:1017100080020748816821F0E0710A43826000205E
:1017200009E6002007E6002005E6022006E600BFE5
:101730000003045000000450704770477047704722
:1017400070470000074AD36823F4E0631B041B0CB6
:10175000000200F4E060184340F0BF6040F4003045
:10176000D060704700ED00E030B4174BDB68C3F386
:101770000223C3F10704042C28BF04241D1D062DD9
:1017800018D9033B4FF0FF3505FA04F421EA0401B0
:10179000994005FA03F322EA0303194300280BDBFF
:1017A0000901C9B200F1604000F5614080F8001302
:1017B00030BC70470023E5E700F00F000901C9B213
:1017C000024B1954F4E700BF00ED00E014ED00E017
:1017D00000F01F02400901239340024A42F82030E2
:1017E000704700BF00E100E00138B0F1807F0AD20D
:1017F000064B5860064AF02182F8231000209860BA
:1018000007221A6070470120704700BF10E000E017
:1018100000ED00E0042805D0054A136823F0040316
:1018200013607047024A136843F004031360704763
:1018300010E000E0704708B5FFF7FCFF08BD0000AE
:10184000002869D010B403460168344A914245D853
:10185000334A0A443349A1FB02121209920042643E
:10186000314A0264022283F825201868016821F4B5
:10187000FF4121F070019A68DC6822431C69224311
:101880005C6922439C692243DC6922431C6A22432F
:101890000A4302609A68B2F5804F15D0196C224A4B
:1018A000914226D0214A1168586C00F01C040F2088
:1018B000A04021EA00011160116858685C6C04F0D6
:1018C0001C04A040014311600020D863012283F86A
:1018D000252083F824005DF8044B7047144A0A441D
:1018E0001049A1FB0212120992004264114A0264DB
:1018F000B8E7A8321168586C00F01C040F20A04013
:1019000021EA00011160116858685C6C04F01C0445
:10191000A04001431160D7E701207047070402404F
:10192000F8FFFDBFCDCCCCCC00000240A8040240A3
:10193000F8FBFDBF0004024008B590F82530DBB28B
:10194000022B03D00423C363012008BD026813687F
:1019500023F00E0313600268136823F00103136081
:10196000436C03F01C03016C012202FA03F34B6089
:1019700080F82520002380F82430836B13B198472A
:101980000020E2E70020E0E738B5036C196804683E
:101990002568436C03F01C0304229A400A4215D0C8
:1019A00015F0040F12D0236813F0200F03D1236821
:1019B00023F004032360436C03F01C02016C042336
:1019C00093404B60036B03B1984738BD02229A40A5
:1019D0000A421CD015F0020F19D0236813F0200F13
:1019E00006D1236823F00A032360012380F8253001
:1019F000436C03F01C02016C022393404B600023F4
:101A000080F82430C36A002BDFD09847DDE7082236
:101A100002FA03F30B42D8D015F0080FD5D0236893
:101A200023F00E032360436C03F01C03016C0122BE
:101A300002FA03F34B60C26380F82520002380F88C
:101A40002430436B002BC0D09847BEE7F0B482B07F
:101A5000002336E0042400E00024B4403C43023577
:101A60005B4E46F825405B4C2568D44304EA0506E6
:101A70004F6817F4803F01D042EA0506554D2E60AD
:101A80006D6804EA05064F6817F4003F01D042EA8A
:101A90000506504D6E60AD6804EA05064F6817F400
:101AA000801F01D042EA05064A4DAE60ED682C4029
:101AB0004E6816F4001F01D042EA0504454AD4607E
:101AC00001330A6832FA03F47ED001249C4022409C
:101AD000F6D04D68022D01D0122D10D1DE08083647
:101AE00050F826C003F00705AF000F25BD402CEAD3
:101AF000050C0D69BD4045EA0C0540F82650066806
:101B00005F000325BD40ED4305EA060C4E6806F074
:101B10000306BE4046EA0C0606604E6806F1FF3C2E
:101B2000BCF1010F03D9112E01D0122E10D18668FD
:101B300005EA060CCE68BE4046EA0C06866046689A
:101B400026EA04044E68C6F300169E40264346600B
:101B5000C46825408C68BC402C43C4604C6814F0B9
:101B6000805FADD01C4C256E45F001052566246EC6
:101B700004F001040194019C9D08AE1C144C54F81F
:101B8000267003F00304A6000F24B44027EA0407DC
:101B9000B0F1904F3FF460AF104CA0420ED004F56E
:101BA0008064A0420CD004F58064A0420AD004F501
:101BB0008064A0423FF44EAF07244EE701244CE777
:101BC00002244AE7032448E702B0F0BC704700BF94
:101BD00000000140000401400010024000040048E1
:101BE0000AB98162704781617047704708B5054B3B
:101BF0005B69034200D108BD024B5861FFF7F5FF56
:101C0000F9E700BF00040140024B186800F4C0600F
:101C1000704700BF00700040B0F5007F0FD01F4B31
:101C20001B6803F4C063B3F5806F34D01B4A13689C
:101C300023F4C06343F48063136000207047174BA4
:101C40001B6803F4C063B3F5007F22D0134A136806
:101C500023F4C06343F400731360114B1A683223FA
:101C600003FB02F30F4AA2FB03239B0C013300E0AA
:101C7000013B0A4A526912F4806F01D0002BF7D160
:101C8000064B5B6913F4806F01D10020704703207D
:101C90007047002070470020704700BF0070004070
:101CA0001400002083DE1B4330B583B00546204B73
:101CB0009B6D13F0805F0BD0FFF7A6FFB0F5007FA0
:101CC00017D0802D1FD82DD0702D2DD000211BE0D6
:101CD000174CA36D43F08053A365A36D03F08053AD
:101CE0000193019BFFF790FFA36D23F08053A36541
:101CF000E4E7802D03D9A02D03D9022104E00021BF
:101D000002E0012100E003210A4A136823F00703DF
:101D10000B431360136803F007038B4206D00120C6
:101D200003B030BD0221EFE70121EDE70020F7E726
:101D30000010024000200240314A9368D26802F04D
:101D4000030213F00C030AD00C2B06D0042B1FD077
:101D5000082B20D00020014610E0012AF6D1284AA5
:101D6000126812F0080F0CD1254AD2F89420C2F361
:101D70000322244951F8221043B100200C2B0DD02E
:101D800070471F4A1268C2F30312F2E70846F5E7EC
:101D90001D480021F2E71D480021EFE7184BDA68E3
:101DA00002F00302DB68C3F302130133022A0AD0F4
:101DB000032A1AD0B1FBF3F3114AD068C0F306200E
:101DC00000FB03F008E01048B0FBF3F30C4AD068C6
:101DD000C0F3062000FB03F0094BDB68C3F341634B
:101DE00001335B00B0FBF3F0CAE70848B0FBF3F344
:101DF000034AD068C0F3062000FB03F0ECE700BF05
:101E000000100240B04E00080024F40000127A00D6
:101E1000002800F0C182F0B583B00446AC4B9D6849
:101E200005F00C05DE6806F00306036813F0100FDA
:101E30005DD0E5B10C2D18D0A369002B00F0B78060
:101E4000A34A136843F001031360FFF737F807460E
:101E50009F4B1B6813F0020F40F09680FFF72EF89F
:101E6000C01B0228F4D90323A2E2012EE4D1984B2F
:101E70001B6813F0020F03D0A369002B00F08F82C0
:101E8000206A934B1B6813F0080F5DD0904B1B68C2
:101E900003F0F00398425ED9FFF706FF002840F0F8
:101EA00080828B4B1A6842F008021A601A6822F08E
:101EB000F002216A0A431A605A6822F47F42E169FB
:101EC00042EA01225A60FFF737FF814B9B68C3F358
:101ED0000313804AD35C03F01F03D8407E4B186085
:101EE0000020FEF7B9FF0346002840F06182236816
:101EF00013F0010F7AD0082D6FD00C2D6BD06368D2
:101F0000B3F5803F00F09180B3F5A02F00F09380EF
:101F10006F4B1A6822F480321A601A6822F4802209
:101F20001A606368002B00F09380FEF7C7FF074636
:101F3000674B1B6813F4003F58D1FEF7BFFFC01B6F
:101F40006428F5D9032333E2614BD3F894301B099D
:101F500003F0F0039EE75E4B1A6842F008021A6035
:101F60001A6822F0F002216A0A431A605A6822F4C1
:101F70007F42E16942EA01225A60206AFFF794FE3B
:101F80000028A0D0012313E2514B1A6842F0080246
:101F90001A601A6822F0F002216A0A431A605A682D
:101FA00022F47F42E16942EA01225A609FE7484AEF
:101FB000136823F001031360FEF780FF0746444BCC
:101FC0001B6813F0020F92D0FEF778FFC01B0228A7
:101FD000F5D90323ECE1032E91D13D4B1B6813F49B
:101FE000003F03D06368002B00F0DD81236813F00D
:101FF000020F4FD0042D3CD00C2D38D0E368002BBD
:1020000075D0334A136843F480731360FEF756FFAC
:1020100006462F4B1B6813F4806F5FD1FEF74EFF0F
:10202000801B0228F5D90323C2E1294A136843F42F
:102030008033136075E703F18043A3F53C331A68DE
:1020400042F480221A601A6842F480321A6068E70B
:10205000FEF734FF07461E4B1B6813F4003FC5D044
:10206000FEF72CFFC01B6428F5D90323A0E1022E44
:10207000C4D1174B1B6813F4806F03D0E368002BA7
:1020800000F09381124A536823F0F853216943EA20
:1020900001635360236813F0080F53D06369002B6A
:1020A00039D00B4AD2F8943043F00103C2F894308F
:1020B000FEF704FF0646064BD3F8943013F0020FE8
:1020C00040D1FEF7FBFE801B0228F4D903236FE109
:1020D00000100240E04E000814000020B74A536888
:1020E00023F0F853216943EA01635360D2E7B34A0E
:1020F000136823F480731360FEF7E0FE0646AF4BCF
:102100001B6813F4806FC5D0FEF7D8FE801B022831
:10211000F5D903234CE1A94AD2F8943023F0010306
:10212000C2F89430FEF7CAFE0646A44BD3F89430AA
:1021300013F0020F06D0FEF7C1FE801B0228F4D96F
:10214000032335E1236813F0040F7AD09B4B9B6D7A
:1021500013F0805F0BD1994B9A6D42F080529A65D3
:102160009B6D03F080530193019B012600E0002644
:10217000934B1B6813F4807F26D0A368012B37D0C4
:10218000052B3DD08D4BD3F8902022F00102C3F8EF
:102190009020D3F8902022F00402C3F89020A36886
:1021A000002B3BD0FEF78AFE0746844BD3F89030D5
:1021B00013F0020F44D1FEF781FEC01B41F28833B9
:1021C0009842F2D90323F3E07D4A136843F4807305
:1021D0001360FEF773FE0746794B1B6813F4807F8C
:1021E000CBD1FEF76BFEC01B0228F5D90323DFE03D
:1021F000724AD2F8903043F00103C2F89030CEE733
:102200006E4BD3F8902042F00402C3F89020D3F82C
:10221000902042F00102C3F89020C0E7FEF74EFE86
:102220000746664BD3F8903013F0020F08D0FEF744
:1022300045FEC01B41F288339842F2D90323B7E030
:10224000E6B9236813F0200F35D0636AE3B15B4A27
:10225000D2F8983043F00103C2F89830FEF72EFE12
:102260000646564BD3F8983013F0020F23D1FEF7F1
:1022700025FE801B0228F4D9032399E04F4A936D71
:1022800023F080539365DCE74C4AD2F8983023F072
:102290000103C2F89830FEF711FE0646474BD3F80B
:1022A000983013F0020F06D0FEF708FE801B0228BC
:1022B000F4D903237CE0A36A002B78D00C2D7AD0CC
:1022C000022B23D03D4B1A6822F080721A601B68E3
:1022D00013F0006F04D1394AD36823F00303D360AD
:1022E000364AD36823F0887323F48033D360FEF733
:1022F000E5FD0446314B1B6813F0007F4AD0FEF722
:10230000DDFD001B0228F5D9032351E02B4A136899
:1023100023F080731360FEF7D1FD0546274B1B6841
:1023200013F0007F06D0FEF7C9FD401B0228F5D947
:1023300003233DE0236B5A1E636B1B0243EA021327
:10234000E26A1343E26B5208013A43EA4253226CB9
:102350005208013A43EA4263A26B43EAC263174A56
:10236000D360136843F080731360D36843F08073C5
:10237000D360FEF7A3FD0446104B1B6813F0007FEB
:1023800006D1FEF79BFD001B0228F5D903230FE0C1
:1023900000230DE000230BE00123184670470123C2
:1023A00006E0012304E0012302E0012300E0002312
:1023B000184603B0F0BD0123FAE700BF0010024049
:1023C00000700040002800F09A8070B504464E4B23
:1023D0001B6803F007038B420CD24B4A136823F0AF
:1023E00007030B431360136803F007038B4201D00C
:1023F000012070BD0D46236813F0010F39D06368CA
:10240000032B09D0022B26D063BB404A126812F07E
:10241000020F06D10120ECE73C4A126812F0007F5F
:102420006FD03A498A6822F0030213438B60FEF7AB
:1024300045FD0646354B9B6803F00C036268B3EB21
:10244000820F16D0FEF73AFD801B41F28833984286
:10245000F0D90320CDE72D4A126812F4003FE0D1F5
:102460000120C6E7294A126812F4806FD9D10120F1
:10247000BFE7236813F0020F06D0244A936823F0C5
:10248000F003A1680B4393601F4B1B6803F0070325
:10249000AB420CD91C4A136823F007032B4313608B
:1024A000136803F00703AB4201D00120A1E72368C2
:1024B00013F0040F06D0154A936823F4E063E16833
:1024C0000B439360236813F0080F07D00F4A9368FB
:1024D00023F46053216943EAC1039360FFF72CFCA6
:1024E0000A4B9B68C3F30313094AD35C03F01F0331
:1024F000D840084B18600020FEF7AEFC79E70120B9
:102500007047012075E700BF002002400010024024
:10251000E04E000814000020014B1868704700BF0F
:102520001400002008B5FFF7F7FF054B9B68C3F3C5
:102530000223044AD35C03F01F03D84008BD00BF48
:1025400000100240F04E000808B5FFF7E5FF054B0C
:102550009B68C3F3C223044AD35C03F01F03D84033
:1025600008BD00BF00100240F04E0008F8B5594BFE
:10257000DB6813F0030F18D0564BDB6803F003033E
:102580000268934202D001252846F8BD002A00F0D7
:102590009F80504BDB68C3F30213013342689342C0
:1025A00001D00125F0E700251AE00368022B58D07E
:1025B000032B5DD0012B01D001250FE0454A1268A5
:1025C00012F0020F60D0434DEA6822F073024468B3
:1025D000013C43EA04131343EB600025002DD3D1E3
:1025E0000F4604463B4A136823F080631360FEF7EE
:1025F00065FC0646374B1B6813F0006F05D0FEF7ED
:102600005DFC801B0228F5D90325002DBCD1002FCD
:102610003CD130490B6923F0784323F4FE43A06892
:10262000E268D20642EA002213430B61294A13688A
:1026300043F080631360FEF741FC0646254B1B68A0
:1026400013F0006F05D1FEF739FC801B0228F5D985
:102650000325002D98D11F4A1369A1690B4313610B
:1026600092E71C4A126812F4806FACD10125B5E7DD
:10267000184A126812F4003FA5D1164A126812F4E3
:10268000802FA0D10125A9E70125A7E7012F0FD0B1
:102690001048026922F0C06222F4FE42A168636918
:1026A0005B08013B5B0643EA012313430361BDE77B
:1026B0000848026922F4C00222F4FE42A16823699C
:1026C0005B08013B5B0543EA012313430361ADE76C
:1026D000012559E7001002402DE9F04182B004467F
:1026E000036813F4006F26D0436CB3F5000F06D0D7
:1026F000B3F5400F1DD09BB1012637461DE0BB4A04
:10270000D36843F48033D3600027B84AD2F88830C6
:1027100023F44003616C0B43C2F8883000260CE0C0
:1027200000210430FFF722FF07460028EDD00646BF
:1027300003E00027E9E700263746236813F4003F4B
:102740006BD0AA4B9B6D13F0805F4CD1A74B9A6D59
:1027500042F080529A659B6D03F080530193019B78
:102760004FF00108A24A136843F480731360FEF728
:10277000A5FB05469E4B1B6813F4807F05D1FEF731
:102780009DFB401B0228F5D90327002F40D1974B12
:10279000D3F8903013F4407315D0A26D9A4212D042
:1027A000924AD2F8903023F44073D2F8901041F45A
:1027B0008031C2F89010D2F8901021F48031C2F824
:1027C0009010C2F8903013F0010F0FD1002F40F09D
:1027D000E380864AD2F8903023F44073A16D0B4316
:1027E000C2F8903015E04FF00008BBE7FEF766FB3B
:1027F00005467E4BD3F8903013F0020FE6D1FEF77A
:102800005DFB401B41F288339842F2D90327DDE794
:102810003E46B8F1000F40F0C180236813F0010F6D
:1028200008D0724AD2F8883023F00303216A0B43A0
:10283000C2F88830236813F0020F08D06B4AD2F830
:10284000883023F00C03616A0B43C2F88830236898
:1028500013F0040F08D0654AD2F8883023F0300313
:10286000A16A0B43C2F88830236813F0200F08D008
:102870005E4AD2F8883023F44063E16A0B43C2F821
:102880008830236813F4007F08D0584AD2F8883083
:1028900023F44023E16B0B43C2F88830236813F420
:1028A000806F08D0514AD2F8883023F44013216C4D
:1028B0000B43C2F88830236813F0400F08D04B4A0E
:1028C000D2F8883023F44053216B0B43C2F8883090
:1028D000236813F0800F08D0444AD2F8883023F4DC
:1028E0004043616B0B43C2F88830236813F4807F48
:1028F00008D03E4AD2F8883023F44033A16B0B4312
:10290000C2F88830236813F4002F0FD0374AD2F86A
:10291000883023F04063A16C0B43C2F88830A36C6D
:10292000B3F1006F40D0B3F1806F42D0236813F44D
:10293000802F0FD02D4AD2F8883023F04063E16C0D
:102940000B43C2F88830E36CB3F1006F39D0B3F1B8
:10295000806F3BD0236813F4804F0CD0234AD2F809
:10296000883023F04053216D0B43C2F88830236D2B
:10297000B3F1805F32D0236813F4004F08D01B4AB4
:10298000D2F8883023F08043616D0B43C2F8883061
:10299000304602B0BDE8F0813E463AE7134A936DF7
:1029A00023F08053936538E7D36843F48013D360F2
:1029B000BCE70121201DFFF7D9FD0028B6D006464F
:1029C000B4E7D36843F48013D360C3E70121201D2B
:1029D000FFF7CCFD0028BDD00646BBE70221201D35
:1029E000FFF7C4FD0028C6D00646C4E70010024029
:1029F0000070004011F0800F11D1002301F0380267
:102A0000382A0ED001F0F202F22A0DD001F0D401E2
:102A1000D4290CD001680A6813430B6070478023E7
:102A2000ECE743F0B803EDE743F0F203EEE743F0E1
:102A3000F403EFE730B4826C012A13D0002301F0D5
:102A4000F204F22C15D001F0D404D42C25D001F0DE
:102A50003801382935D001680A6822EA03030B607F
:102A600030BC704711F0800F01D10023E7E78023CD
:102A7000E5E743F0420405682D6815F4800F04D1A2
:102A800012F0080F01D143F0C20412F0080F02D176
:102A900044F03003D7E72346D5E743F04404056804
:102AA0002D6815F4800F04D112F0080F01D143F006
:102AB000C40412F0080F02D144F03003C7E72346E4
:102AC000C5E743F038010268126812F4800F02D1A2
:102AD00043F0B803BFE70B46BDE770B4039E05683B
:102AE0006868740D04F4806444F0FF6444F4EC24DA
:102AF00044F47F7444F0030420EA0400C1F30901A4
:102B000041EA0241194331430143696070BC704797
:102B1000C36BAA2B0CD0C36BB3F52A4F0BD0C36B7E
:102B2000B3F52A0F0BD0C36BB3F12A4F0BD070470C
:102B30000023C36370474FF08063C36370474FF057
:102B40000073C36370474FF0C063C363EFE70028AF
:102B500071D010B50446836C002B52D00223A364BD
:102B60002268136823F0010313606368226823F06E
:102B7000706313612268536923F400435361226830
:102B8000536923F0004353612368226B5A61226822
:102B9000936823F400439360E36833B12269012A08
:102BA00034D0226843F4044393602369022B32D06B
:102BB0002268536843F0007343F400435360636931
:102BC000A2691343E169226843EA0123D360236ABF
:102BD000626A1343A26A1343E26A1343A16822683C
:102BE0000B431360A36AB3F5000F19D02268136872
:102BF00043F0010313600020E06401232364A36415
:102C000010BD80F84430FDF7A7FFA7E7226843F422
:102C100000439360C9E723684FF400625A60C7E736
:102C2000E36A13B1B3F5001FE0D12268136843F4DF
:102C300080331360DAE701207047000030B583B0BD
:102C4000846C012C69D190F84440012C68D0012497
:102C500080F84440122484640024C464426343879F
:102C6000069CC463002A3CD0FF2B3FD9FF23038777
:102C70000D460446028F438F9BB29A4201D2FF2A2F
:102C800036D0E36B216C12290AD1AA2B08D0B3F5F8
:102C90002A0F05D0B3F52A4F02D0B3F12A4F33D112
:102CA0002046FFF735FFE36B94F838201D4900916B
:102CB00029462046FFF711FF23685B6813F0806FF9
:102CC00006D0238F013B2387638F013B9BB2638731
:102CD000002584F84450F2212046FFF78BFE284659
:102CE0001CE0C26B22F00072C263BDE70387BFE73E
:102CF000C36B03F080630B49009143F08073D2B241
:102D00002946FFF7EAFEE3E7E36B00210091D2B228
:102D100029462046FFF7E1FECEE7022003B030BD92
:102D20000220FBE700200080704770477047704723
:102D300070477047704710B501688B690A6813F4D3
:102D4000807F09D012F0800F06D0C46C44F00104DB
:102D5000C4644FF48074CC6113F4806F0AD012F015
:102D6000800F07D0C16C41F00801C16401684FF4C5
:102D70008064CC6113F4007F0AD012F0800F07D07A
:102D8000C16C41F00201C16401684FF40074CC6170
:102D900013F4805F0AD012F0800F07D0C16C41F0AD
:102DA0002001C16401684FF48054CC6113F4005FCA
:102DB0000AD012F0800F07D0C16C41F04001C1640D
:102DC00001684FF40054CC6113F4006F0AD012F084
:102DD000800F07D0C36C43F08003C36403684FF4D3
:102DE0000062DA61C36C9BB1042B11D013F0400F69
:102DF0000CD1836C03F03202322A03D003F0420379
:102E0000422B03D10123036408238364FFF792FF5D
:102E100010BD08B5FFF78FFF08BD90F84430012BB7
:102E200000F0438130B583B00D460446012380F89D
:102E3000443011F0100F14D111F0200F22D111F0F5
:102E4000040F7BD003685A6A436B1A70436B0133DB
:102E50004363038F013B0387438F013B9BB243874F
:102E60000BE003681022DA61C36C43F00403C3640F
:102E7000002380F84430FFF75DFF002084F8440011
:102E800003B030BDFFF757FFA36C122B30D0A36CFB
:102E9000222BF2D115F0040F0ED023685A6A636B0F
:102EA0001A70636B01336363238F2BB1013B23875C
:102EB000638F013B9BB26387D4212046FFF7BAFDA5
:102EC00023682022DA612268536823F0FF7323F419
:102ED0008B3323F4FF7323F0010353600123236436
:102EE000A364002384F844302046FFF71EFFC4E7A4
:102EF000F2212046FFF79EFD23682022DA61226836
:102F0000536823F0FF7323F48B3323F4FF7323F010
:102F1000010353602268136823F001031360012347
:102F20002364A364002384F844302268136843F0C8
:102F3000010313602046FFF7F7FE9EE711F0020F32
:102F40000ED0426B036812789A62436B013343637D
:102F5000038F013B0387438F013B9BB243878CE781
:102F600011F0800F67D0438F9BB2002B2FD0038FBF
:102F7000002B2CD103685968C1F30901438F9BB220
:102F8000FF2B0CD9C36B03F080630022009243F047
:102F90008073FF22FFF7A1FDFF2323876DE7428F98
:102FA00092B20287C36B00200090D2B22046FFF796
:102FB00094FD23685B6813F0806F3FF45EAF238F4E
:102FC000013B2387638F013B9BB2638755E7638F88
:102FD0009BB2002B7FF451AF238F002B7FF44DAFBA
:102FE00023685B6813F0007F7FF447AFA36C122B5C
:102FF00012D0A36C222B7FF440AFD4212046FFF7E0
:1030000019FDA36C23640123A364002384F84430D6
:103010002046FFF78AFE30E7F2212046FFF70AFD3F
:10302000A36C23640123A364002384F84430204666
:10303000FFF77AFE21E711F0400F3FF41EAF438FF8
:103040009BB2002B7FF419AF436BD3B103685B686D
:1030500013F0007F7FF411AF836C122B17D0836CB9
:10306000222B7FF40AAFD421FFF7E4FCA36C236486
:103070000123A364002384F844302046FFF755FE63
:10308000FBE60268536843F480435360F5E6F2219F
:10309000FFF7D0FCA36C23640123A364002384F80E
:1030A00044302046FFF740FEE7E60220704790F8E4
:1030B0004430012B00F03C8130B583B00D4604460E
:1030C000012380F8443011F0100F6CD0438F9BB275
:1030D000002B4DD103681022DA61002380F84430C0
:1030E00015F0200F3FD0A36C13F0080F3BD02368DE
:1030F0009A6912F0040F0DD05A6A636B1A70636BF1
:1031000001336363238F2BB1013B2387638F013B23
:103110009BB26387F6212046FFF78CFC38212046BE
:10312000FFF788FC2268536843F400435360226829
:10313000536823F0FF7323F48B3323F4FF7323F0DE
:103140000103536023682022DA6123680822DA61D0
:103150000023E363A26C22640122A26484F8443059
:103160002046FFF7E6FD002084F8440003B030BDA0
:1031700003681022DA61836C0364836C23F03203EA
:103180008364836C23F042038364F621FFF752FCCF
:10319000E36C43F00403E364002384F844302046E6
:1031A000FFF7C8FD9CE711F0080F29D111F0040FBB
:1031B00003D111F0800F00F09080A36C03F0420364
:1031C000422B2FD0A36C03F03203322B88D1638FB4
:1031D0009BB2002B84D0238F002B81D1638F9BB2B5
:1031E000FF2B62D9E36B03F080630021009143F071
:1031F0008073FF222046FFF770FCFF2323876FE7D1
:10320000036899699A69186820F00800186000231B
:1032100084F84430C2F34642C1F300412046FFF730
:1032200087FD5DE723685A6A636B1A70636B01332D
:103230006363238F013B2387638F013B9BB26387CB
:10324000638F9BB2012B13D0638F9BB2E3B9D42160
:103250002046FFF7EFFBA36C2364A36C23F042032B
:10326000A364002384F844302046FFF760FD37E76D
:10327000E36B23F08073E363E36B00210091012291
:103280002046FFF72AFC2BE7E36B03F08063002165
:10329000009143F0807301222046FFF71EFC226854
:1032A000536823F4004353601AE7628F92B2228777
:1032B000E36B00210091D2B22046FFF70EFC236899
:1032C0005B6813F0806F3FF40BAF238F013B2387C4
:1032D000638F013B9BB2638702E711F0020F3FF45B
:1032E000FFAE438F9BB26BB1426B036812789A6258
:1032F000436B01334363438F013B9BB24387038F8F
:10330000013B0387638F9BB2002B7FF4E9AEF22170
:103310002046FFF78FFBA36C2364A36C23F03203DA
:10332000A364002384F844302046FFF7FFFCD7E66F
:103330000220704770B5054603689E691C6804F05A
:103340007203722B1AD004F07403742B39D014F06A
:10335000080F05D114F0200F02D114F0100F0CD07B
:1033600016F0080F05D116F0200F02D116F0100F3D
:1033700003D0AB6C13F0080F46D170BD16F0020FEE
:103380000BD116F0800F08D116F0400F05D116F0C2
:10339000200F02D116F0100FD5D0AB6C03F0320322
:1033A000322B09D0AB6C03F01203122BCBD1314678
:1033B0002846FFF732FDC6E731462846FFF777FE7D
:1033C000C1E716F0040F0BD116F0800F08D116F0EC
:1033D000400F05D116F0200F02D116F0100FB6D015
:1033E000AB6C03F04203422B09D0AB6C03F0220319
:1033F000222BACD131462846FFF70FFDA7E7314617
:103400002846FFF754FEA2E731462846FFF74FFE55
:10341000B3E7002853D010B504460023836290F828
:103420005D30002B40D0022384F85D3022681368A1
:1034300023F040031360E368B3F5E06F39D900224D
:10344000B3F5706F04D0B3F5E06F01D00021A16235
:10345000216B21B9B3F5E06F2ED902232363636892
:10346000A1680B4321690B4361690B43A16901F416
:1034700000710B43E1690B43216A0B43A06A216889
:1034800003430B60638B03F00403616A0B43616BBE
:103490000B43E1680B43216813434B600020206617
:1034A000012384F85D3010BD80F85C30FDF78EFBA1
:1034B000B9E74FF48052C3E701232363CFE701202C
:1034C0007047704730B585B004460268506893680D
:1034D000C3F3801149B913F0010F06D010F0400F6B
:1034E00003D0E36C2046984708E013F0020F07D0A2
:1034F00010F0800F04D0236D2046984705B030BDF2
:10350000C3F340151DB911B913F4807FF6D010F044
:10351000200FF3D079B194F85D10C9B2032953D0CC
:10352000216E41F00401216600210091D1680091D3
:1035300091680091009965B1216E41F00101216609
:103540000021029191680291116821F040011160FF
:10355000029A13F4807F09D0236E43F00803236698
:103560000023039323689B680393039B236E002B24
:10357000C4D02268536823F0E0035360012384F829
:103580005D3010F0030F27D02268536823F0030347
:103590005360A36D4BB1124A9A63A06DFEF7CCF94C
:1035A00018B1236E43F040032366636D002BA5D052
:1035B0000B4A9A63606DFEF7BFF900289ED0236E18
:1035C00043F04003236699E700230193D3680193F6
:1035D00093680193019B91E72046FFF772FF8DE707
:1035E000E535000808B5806A0023A0F84630C38797
:1035F000FFF767FF08BD7047704770477047704717
:1036000010B5044603681A6912F0020F11D0DA6887
:1036100012F0020F0DD06FF002021A61012303773E
:1036200003689B6913F0030F79D0FFF7E6FF0023CF
:10363000237723681A6912F0040F12D0DA6812F0A7
:10364000040F0ED06FF004021A610223237723685F
:103650009B6913F4407F68D02046FFF7CEFF00231C
:10366000237723681A6912F0080F12D0DA6812F073
:10367000080F0ED06FF008021A6104232377236825
:10368000DB6913F0030F57D02046FFF7B6FF002386
:10369000237723681A6912F0100F12D0DA6812F03B
:1036A000100F0ED06FF010021A61082323772368E1
:1036B000DB6913F4407F46D02046FFF79EFF0023CE
:1036C000237723681A6912F0010F03D0DA6812F029
:1036D000010F3FD123681A6912F0800F03D0DA6816
:1036E00012F0800F3DD123681A6912F4807F03D055
:1036F000DA6812F0800F3BD123681A6912F0400F8C
:1037000003D0DA6812F0400F39D123681A6912F039
:10371000200F03D0DA6812F0200F37D110BDFFF769
:103720006BFF2046FFF76AFF81E72046FFF764FF43
:103730002046FFF763FF92E72046FFF75DFF204634
:10374000FFF75CFFA3E72046FFF756FF2046FFF791
:1037500055FFB4E76FF001021A612046FFF74BFFF7
:10376000B8E76FF080021A61204600F098F8BAE7D7
:103770006FF480721A61204600F092F8BCE76FF097
:1037800040021A612046FFF73AFFBEE76FF02002C1
:103790001A61204600F082F8C0E7000003681A4A68
:1037A000904202D0B0F1804F03D123F070034A68F9
:1037B0001343154A90420AD0B0F1804F07D002F56A
:1037C000A052904203D002F58062904203D123F4CC
:1037D0004073CA68134323F080034A6913430360AC
:1037E0008B68C3620B688362074B984207D003F56E
:1037F000A053984203D003F58063984201D10B692E
:103800000363012343617047002C0140A8B110B548
:10381000044690F83D305BB1022384F83D30211D11
:103820002068FFF7BBFF012384F83D30002010BD66
:1038300080F83C30FDF73EFAEEE7012070470000CB
:1038400090F83C30012B25D030B4012380F83C3077
:10385000022380F83D300268536895680E4CA242FE
:1038600013D023F070030C68234325F0800489688B
:103870002143536003689960012380F83D300023A1
:1038800080F83C30184630BC704723F470034C6815
:103890002343E6E702207047002C01407047704741
:1038A00070470268136823F490731360026893688A
:1038B00023F001039360202380F872300023036615
:1038C0007047704708B501680A6822F040020A6034
:1038D000202280F8712000224266FFF7F2FF08BD27
:1038E0007047000038B504460268D36911689068D3
:1038F00013F00F050CD113F0200F09D011F0200F99
:1039000006D0236E002B00F09380204698478FE06E
:10391000002D6FD010F0010502D111F4907F69D015
:1039200013F0010F07D011F4807F04D00120106242
:10393000626F0243626713F0020F07D035B122684D
:1039400002201062626F42F00402626713F0040FFB
:1039500007D035B1226804201062626F42F0020283
:10396000626713F0080F09D011F0200F00D12DB1BC
:10397000226808201062626F02436267626F002A49
:1039800056D013F0200F06D011F0200F03D0236E75
:103990000BB120469847636F13F0080F04D12368DA
:1039A0009B6813F0400F1FD02046FFF77AFF236873
:1039B0009A6812F0400F13D09A6822F040029A6081
:1039C000E36E4BB11D4A9A63E06EFDF7B5FF78B325
:1039D000E06E836B98472BE02046FFF781FF27E0DE
:1039E0002046FFF77DFF23E02046FFF779FF002305
:1039F00063671DE013F4801F02D010F4800F0AD11A
:103A000013F0800F0ED011F0800F0BD0636E7BB1DE
:103A1000204698470CE04FF480131362204600F0D4
:103A2000EEFA05E013F0400F02D011F0400F00D184
:103A300038BD2046FFF746FFFAE700BF413A0008CD
:103A400008B5806A0023A0F85A30A0F85230FFF77A
:103A500047FF08BD2DE9F048044601688368026904
:103A6000134342691343C269134308689E4A0240E4
:103A700013430B602268536823F44053E1680B43FF
:103A80005360A1692268994B9A4201D0236A194375
:103A9000936823F430630B4393602368944A934202
:103AA0001FD0944A934230D0934A934246D08F4AD3
:103AB000934259D010258D4A934276D0E369B3F5ED
:103AC000004F00F0ED80082D00F28981DFE815F04D
:103AD00049015F016901870174018701870187013D
:103AE0007E0102F55842D2F8882002F00302032A30
:103AF00009D8DFE802F0020452060125DBE70425BD
:103B0000D9E70825D7E71025D5E702F5E632D2F840
:103B1000882002F00C020C2A0ED8DFE802F0070D14
:103B20000D0D090D0D0D400D0D0D0B000025C2E70B
:103B30000425C0E70825BEE71025BCE702F5E432FE
:103B4000D2F8882002F03002102A09D005D9202AA4
:103B500027D0302A06D10825ADE71AB90025AAE7F3
:103B60000425A8E71025A6E702F5C832D2F8882078
:103B700002F44062B2F5806F0BD007D9B2F5006F46
:103B800011D0B2F5406F06D1082594E71AB9002587
:103B900091E704258FE710258DE702258BE70225A5
:103BA00089E7022587E7022585E7082D00F21A81BB
:103BB000DFE815F00C0018011400180111001801BD
:103BC0001801180109004FF4004008E0FEF7AAFCB4
:103BD00028B90020D6E0FEF7AFF8F9E74748626859
:103BE00002EB4203834200F2FF80B0EB023F00F29F
:103BF000FD80082D51D8DFE805F0055020503050E9
:103C000050504300FEF78EFC0025070E0602626846
:103C100050082B4616EB000B47F1000C5846614646
:103C2000FCF7D6FA03462846A3F54071344A914280
:103C300000F2DE802268D360A4E0560800252B46FF
:103C4000DFF8C0B04FF0000C1BEB06004CF1000198
:103C5000FCF7BEFA03462846E6E7FEF76DF80025B6
:103C6000070E0602626850082B4616EB000B47F160
:103C7000000C58466146FCF7ABFA03462846D3E7EA
:103C80005008002700252B4610F5000047F10001E1
:103C9000FCF79EFA03462846C6E701200023C3E747
:103CA000082D5BD8DFE805F005303B5A465A5A5AD2
:103CB0005100FEF737FC6268530803EB4003B3FB87
:103CC000F2F39BB20020A3F110014FF6EF72914284
:103CD00000F290809AB222F00F02C3F34203134322
:103CE0002268D3604EE000BFF369FFEF0080004020
:103CF0000038014000440040004800400024F40027
:103D0000FFFC0F00000024F4FEF71EFC626853085D
:103D100003EB4003B3FBF2F39BB20020D3E76268EE
:103D2000530803F1F47303F59043B3FBF2F39BB232
:103D30000020C8E7FEF700F86268530803EB400371
:103D4000B3FBF2F39BB20020BDE76268530803F5B2
:103D50008033B3FBF2F39BB20020B4E701200023D1
:103D6000B1E7FEF7DFFB636800EB5302B2FBF3F24F
:103D700092B20020A2F110014FF6EF7399423BD8A6
:103D80002368DA60002222666266BDE8F088FEF7EA
:103D9000DBFB636800EB5302B2FBF3F292B200204C
:103DA000E8E763685A0802F5740202F51052B2FBA4
:103DB000F3F292B20020DDE7FDF7BEFF636800EB8F
:103DC0005302B2FBF3F292B20020D3E763685A08C1
:103DD00002F50042B2FBF3F292B20020CAE70120E2
:103DE0000022C7E70120CDE70120CBE70120C9E78A
:103DF0000120C7E70120C5E70120C3E7436A13F0AC
:103E0000010F06D00268536823F40033816A0B4324
:103E10005360436A13F0020F06D00268536823F41C
:103E20008033C16A0B435360436A13F0040F06D01A
:103E30000268536823F48023016B0B435360436A89
:103E400013F0080F06D00268536823F40043416B57
:103E50000B435360436A13F0100F06D00268936857
:103E600023F48053816B0B439360436A13F0200F5C
:103E700006D00268936823F40053C16B0B43936030
:103E8000436A13F0400F0AD00268536823F480138A
:103E9000016C0B435360036CB3F5801F0BD0436A76
:103EA00013F0800F06D00268536823F40023816C5E
:103EB0000B43536070470268536823F4C003416C9E
:103EC0000B435360EBE72DE9F04105460F461646DC
:103ED0009846069C2B68DB6937EA03030CBF012375
:103EE0000023B3421DD1B4F1FF3FF3D02CB1FCF756
:103EF000E5FFA0EB0800A042ECD92A68136823F480
:103F0000D07313602A68936823F001039360202321
:103F100085F8713085F87230002385F87030032001
:103F200000E00020BDE8F08130B583B004460023F6
:103F30004367FCF7C3FF054623681B6813F0080FAF
:103F40000ED123681B6813F0040F17D1202384F8C7
:103F5000713084F87230002084F8700003B030BDF6
:103F60006FF07E430093034600224FF40011204679
:103F7000FFF7A9FF0028E4D00320EFE76FF07E43AE
:103F800000932B4600224FF480012046FFF79BFF51
:103F90000028DBD00320E1E778B310B5044690F8A1
:103FA00071300BB3242384F871302268136823F036
:103FB000010313602046FFF74DFD012813D0636A0B
:103FC000BBB92268536823F4904353602268936816
:103FD00023F02A0393602268136843F001031360FF
:103FE0002046FFF7A1FF10BD80F87030FCF782FE7D
:103FF000D8E72046FFF702FFE3E70120704770474C
:1040000070B50D4E0D4CA41BA4100025A54209D17E
:104010000B4E0C4C00F040FFA41BA4100025A54241
:1040200005D170BD56F8253098470135EEE756F8B2
:10403000253098470135F2E708500008085000087D
:10404000085000080C50000802440346934200D177
:10405000704703F8011BF9E70FB40A4B13B51C684E
:1040600024B1A36913B9204600F04EF805AB049AB9
:10407000A1680193204600F055F902B0BDE8104058
:1040800004B0704718000020002310B50446C0E9B2
:104090000033836081814366C281C0E90433836158
:1040A000194608225C30FFF7CFFF054B6362054BD2
:1040B000A362054BE362054B2462236310BD00BF7E
:1040C0007D4800089F480008D7480008FB480008C2
:1040D000014900F085B800BFD54B000870B54A1EF5
:1040E000682555430E4605F1740100F097F8044623
:1040F00040B10021C0E900160C30A06005F1680253
:10410000FFF7A2FF204670BD836910B5044633BB9C
:10411000C0E912330365124B124A1B68826298424F
:1041200004BF0123836100F01FF86060204600F0A7
:104130001BF8A060204600F017F80022E060042180
:104140006068FFF7A1FF01220921A068FFF79CFF2B
:1041500002221221E068FFF797FF0123A36110BD3F
:10416000644F0008D1400008F8B51B4B1E68B369C6
:10417000074613B93046FFF7C7FF4836D6E9013482
:10418000013B03D5336833B13668F7E7B4F90C5017
:104190006DB16834F4E704213846FFF79FFF3060C3
:1041A0000028F1D10C233B6004462046F8BD0B4BA0
:1041B0006566C4E90055A560C4E90335C4E9055541
:1041C0000822294604F15C00FFF73EFFC4E90D55C3
:1041D000C4E91255E9E700BF644F00080100FFFF82
:1041E0002DE9F8438046894600F14804002614B9B9
:1041F0003046BDE8F883D4E90175013F01D5246854
:10420000F5E7AB89012B07D9B5F90E30013303D09F
:1042100029464046C84706436835EEE770B5CD1CD1
:1042200025F0030508350C2D38BF0C25002D06465A
:1042300001DBA94203D90C233360002070BD00F0DC
:1042400069FD214A1468214691B9204C23681BB9A5
:10425000304600F003FB20602946304600F0FEFAAD
:10426000431C24D10C233360304600F054FDE4E7B6
:104270000B685B1B18D40B2B0FD90B60CD50CC18DF
:10428000304600F048FD04F10B00231D20F007002C
:10429000C31AD3D05A42E250D0E78C424B6816BFC3
:1042A000636013600C46EBE70C464968CCE7C41C1E
:1042B00024F00304A04205D0211A304600F0CEFAC3
:1042C0000130CFD02560DBE7A4000020A80000204B
:1042D0009368013B002B10B4936008DA9469A34201
:1042E00001DB0A2903D15DF8044B00F00BBB136816
:1042F000581C1060197008465DF8044B7047F8B5FB
:1043000006460F461446D518AC4201D1002007E0FE
:104310003A4614F8011B3046FFF7DAFF431CF3D18D
:10432000F8BD00002DE9F04F9DB00C4617460393F1
:10433000064618B183690BB9FFF7E6FE7B4B9C423A
:1043400057D17468A38918075DD52369002B5AD00B
:104350000023099320238DF8293030238DF82A304B
:104360004FF0010BB846454615F8013B0BB1252B24
:1043700054D1B8EB070A0BD053463A462146304693
:10438000FFF7BDFF013000F0C280099B5344099341
:1043900098F80030002B00F0BA8000234FF0FF3275
:1043A000CDE90523049307938DF853301A93A8465B
:1043B000052218F8011B5E48FCF78AF8049B78BBBD
:1043C000D90644BF20228DF853201A0744BF2B2260
:1043D0008DF853202A782A2A2AD0079AA846002046
:1043E0000A25414611F8013B303B092B69D960B3DE
:1043F00024E0504B9C4201D1B468A3E74E4B9C4251
:1044000008BFF4689EE72146304600F0DFFA002836
:104410009ED04FF0FF301DB0BDE8F08FA846A2E758
:10442000434A801A0BFA00F0184304904546BEE751
:10443000039A111D12680391002A01DB079204E020
:10444000524243F002030792049398F800302E2B57
:104450000ED198F801302A2B38D1039B1A1D1B6806
:104460000392002BB8BF4FF0FF3308F10208059309
:10447000324D98F8001003222846FCF729F840B185
:104480004023401B03FA00F0049B034308F101089A
:10449000049398F800102A488DF82810062208F195
:1044A0000107FCF715F8002837D0264B1BBB039BF0
:1044B000073323F0070308330393099B4B44099305
:1044C00050E705FB0232012088468AE7002308F105
:1044D0000108059319460A25404610F8012B303A89
:1044E000092A03D9002BC3D00591C1E705FB01219F
:1044F00001238046F0E703AB00932246124B04A948
:104500003046AFF30080B0F1FF3F8146D5D1A3899B
:104510005B063FF57EAF09987DE703AB009322462B
:10452000094B04A9304600F087F8ECE7884F0008F3
:10453000C84F0008A84F0008684F0008CE4F000879
:10454000D24F000800000000FF4200082DE9F047AC
:1045500091461F468A680B69DDF820809342B8BFF8
:104560001346C9F8003091F8432006460C4612B1B4
:104570000133C9F800302368990642BFD9F80030EA
:104580000233C9F80030256815F0060507D104F19B
:10459000190AE368D9F800209B1AAB4228DC94F88A
:1045A00043302268003318BF012392062DD404F152
:1045B000430239463046C047013020D02368E568C1
:1045C000D9F8002003F00603042B08BFAD1AA36836
:1045D00022690CBF25EAE57500259342C4BF9B1AEA
:1045E000ED184FF000091A344D451AD1002008E0AB
:1045F0000123524639463046C047013003D14FF0BF
:10460000FF30BDE8F0870135C3E7E1185A1C3020C0
:1046100081F84300224494F8451082F84310023395
:10462000C5E70123224639463046C0470130E6D06F
:1046300009F10109D8E700002DE9F04301F1430C2D
:104640000C46097E85B06E291746064698460C9A98
:1046500000F0B38022D8632936D00AD8002900F0B0
:10466000B980582900F0838004F1420584F8421093
:1046700032E0642901D06929F6D120681368050663
:1046800003F104012AD51B681160002B03DA2D22E7
:104690005B4284F843206F480A2239E0732900F016
:1046A0009D8008D86F2920D07029DDD1236843F080
:1046B0002003236003E0752917D07829D4D178230B
:1046C00084F84530644855E01368191D1B68116073
:1046D00004F1420584F8423001238CE01B6811602C
:1046E00010F0400F18BF1BB2CFE713682568181DE4
:1046F0001060280601D51B6802E06806FBD51B8800
:1047000054486F2914BF0A220822002184F843105C
:104710006568A560002DC0F29580216821F0040134
:104720002160002B3DD1002D40F08E806546082A87
:104730000BD12368DB0708D5236962689A42DEBF84
:10474000302305F8013C05F1FF35ACEB050323618F
:10475000CDF800803B4603AA21463046FFF7F6FE1F
:1047600001304DD14FF0FF3005B0BDE8F08339483E
:1047700084F84510136821681D1D1B6815600A0622
:104780000BD5CA0744BF41F0200121601BB9226844
:1047900022F0200222601022B7E74D0648BF9BB2EC
:1047A000EFE76546B3FBF2F102FB1133C35C05F89A
:1047B000013D0B460029F5D1B9E713682568616909
:1047C000181D106028061B6801D5196002E06A06F2
:1047D000FBD51980002323616546B9E71368191DCD
:1047E00011601D68626800212846FBF771FE08B160
:1047F000401B606063682361002384F84330A7E7AF
:1048000023692A4639463046C0470130AAD023687A
:104810009B0713D4E068039B9842B8BF1846A3E7F0
:1048200001234A4639463046C04701309AD0013507
:10483000E368039A9B1AAB42F2DCEBE7002504F134
:104840001909F5E7002BACD1037884F8423004F164
:1048500042056CE7D94F0008EA4F000838B5064C0E
:10486000002305460846236000F000FB431C02D1EC
:10487000236803B12B6038BD9403002010B50C46AB
:10488000B1F90E1000F096FA0028ABBF636DA38952
:104890001B1823F48053ACBF6365A38110BD2DE9C1
:1048A000F0411F468B89DB0505460C46164605D5AB
:1048B00002230022B1F90E1000F0B6F9A389B4F971
:1048C0000E1023F48053A38132463B462846BDE8B0
:1048D000F04100F069B810B50C46B1F90E1000F0C7
:1048E000A3F9431CA38915BF606523F4805343F4E7
:1048F0008053A38118BFA38110BDB1F90E1000F041
:10490000D3B80000F8B50E461446054618B18369C1
:104910000BB9FFF7F9FB214B9C422AD16C68A369C4
:10492000A360A3891A072ED5236963B3236920687E
:10493000C01A6369F6B28342374604DC2146284632
:1049400000F048F928BBA368013BA36023685A1C08
:1049500022601E7063690130834204D0A389DB07A3
:1049600019D50A2E17D12146284600F033F990B107
:104970000FE00B4B9C4201D1AC68D0E7094B9C4245
:1049800008BFEC68CBE72146284600F01FF8002856
:10499000CCD04FF0FF373846F8BD00BF884F000835
:1049A000A84F0008684F000838B5074C0546084670
:1049B0001146002222601A4600F066FA431C02D11A
:1049C000236803B12B6038BD94030020324B70B5CF
:1049D0001D6806460C4625B1AB6913B92846FFF79A
:1049E00093FB2E4B9C420FD16C68B4F90C309AB2F9
:1049F00015072CD4D00611D40922326043F04003AD
:104A0000A3814FF0FF303EE0254B9C4201D1AC68C2
:104A1000EBE7244B9C4208BFEC68E6E7510712D550
:104A2000616B41B104F14403994202D0304600F079
:104A300073F900236363A38923F02403A381002374
:104A4000636023692360A38943F00803A38123697A
:104A50004BB9A38903F42073B3F5007F03D021463B
:104A6000304600F017F9A28912F001030CD00023A0
:104A7000A36063695B42A361236953B9B4F90C3045
:104A800013F08000BAD170BD920758BF6369A3606C
:104A9000F2E70020F7E700BF18000020884F000869
:104AA000A84F0008684F000838B5064C002305469B
:104AB0000846236000F0B2F9431C02D1236803B119
:104AC0002B6038BD940300208A892DE9F04105460A
:104AD00010070C4658D44B68002B05DC0B6C002BE0
:104AE00002DC0020BDE8F081E66A002EF9D0002348
:104AF00012F480522F68216A2B6032D0606DA38936
:104B00005A0705D56368C01A636B0BB1236CC01AD2
:104B100000230246E66A216A2846B047431CA3895F
:104B200006D129681D2948D8294ACA40D60744D544
:104B300000226260D9042269226004D5421C01D19E
:104B40002B6803B96065616B2F600029C9D004F13F
:104B50004403994202D0284600F0DEF8002060634A
:104B6000C0E701232846B047411CC8D12B68002B61
:104B7000C5D01D2B01D0162B01D12F60B1E7A38921
:104B800043F04003A381ADE70F69002FA9D093073D
:104B90000E6808BF4B690F6018BF0023A6EB07081B
:104BA0008B60B8F1000F9CDD43463A46216AA66A45
:104BB0002846B047002806DCA38943F04003A381C0
:104BC0004FF0FF308EE70744A8EB0008E9E700BF8D
:104BD0000100402038B50B6905460C46DBB118B121
:104BE00083690BB9FFF790FA0C4B9C4209D16C68B2
:104BF000B4F90C307BB121462846BDE83840FFF7B8
:104C000063BF074B9C4201D1AC68F1E7054B9C4266
:104C100008BFEC68ECE7002038BD00BF884F0008F3
:104C2000A84F0008684F000838B5074C05460846ED
:104C30001146002222601A4600F008F9431C02D1F6
:104C4000236803B12B6038BD9403002070B50E4675
:104C5000B1F90E10002996B014461D4607DA00235C
:104C60002B60B3891A0610D44FF480630EE06A46B5
:104C700000F0B2F80028F2DB019A02F47042A2F5CB
:104C800000535A425A412A60EEE740230020236035
:104C900016B070BD8B8973B59D0706460C4607D5C7
:104CA00004F14703236023610123636102B070BDF7
:104CB00001AB6A46FFF7CAFF009905463046FFF789
:104CC000ADFA48B9B4F90C309A05EFD423F00303D8
:104CD00043F00203A381E3E70D4BB362A389206095
:104CE00043F08003A381009B6361019B20615BB162
:104CF000B4F90E10304600F081F828B1A38923F0F2
:104D0000030343F00103A381A3891D43A581CDE7DC
:104D1000D14000087047704738B50546002945D096
:104D200051F8043C0C1F002BB8BFE418FFF7F2FF4A
:104D30001F4A1368104633B9636014602846BDE803
:104D40003840FFF7E8BFA3420CD9216862189342AC
:104D500004BF1A685B68636004BF52182260046075
:104D6000ECE713465A680AB1A242FAD919685818F2
:104D7000A0420BD120680144581882421960DDD14D
:104D8000106852685A6001441960D7E702D90C23B1
:104D90002B60D3E7206821188A4204BF116852684B
:104DA000626004BF091821605C60C7E738BD00BFBE
:104DB000A400002038B5074C0546084611460022DD
:104DC00022601A4600F04AF8431C02D1236803B15E
:104DD0002B6038BD9403002038B5074C00230546EE
:104DE00008461146236000F021F8431C02D12368D5
:104DF00003B12B6038BD00BF9403002038B5064CCA
:104E0000002305460846236000F018F8431C02D131
:104E1000236803B12B6038BD94030020024B582255
:104E20001A604FF0FF30704794030020024B582265
:104E30001A604FF0FF30704794030020024B582255
:104E40001A600020704700BF94030020024B5822D4
:104E50001A604FF0FF30704794030020024B582235
:104E60001A604FF0FF30704794030020044A054950
:104E70001368002B08BF0B46184410601846704793
:104E8000AC00002098030020024B58221A604FF01B
:104E9000FF30704794030020F8B500BFF8BC08BC91
:104EA0009E467047F8B500BFF8BC08BC9E467047E8
:104EB000A0860100400D0300801A060000350C009A
:104EC00040420F0080841E0000093D0000127A005D
:104ED0000024F40000366E010048E801006CDC029A
:104EE000000000000000000001020304060708099A
:104EF00000000000010203042F686F6D652F6B62D4
:104F000069736C616E642F536D616C6C4B6174439B
:104F10006861726765722F436F72652F5372632FDA
:104F20006D61696E2E6300002F686F6D652F6B6277
:104F300069736C616E642F536D616C6C4B6174436B
:104F40006861726765722F436F72652F5372632FAA
:104F500073746D33326C3478785F68616C5F6D7335
:104F6000702E63001C000020000000000000000004
:104F70000000000000000000000000000000000031
:104F80000000000000000000000000000000000021
:104F90000000000000000000000000000000000011
:104FA0000000000000000000000000000000000001
:104FB00000000000000000000000000000000000F1
:104FC0000000000000000000232D302B2000686C42
:104FD0004C0065666745464700303132333435361C
:104FE0003738394142434445460030313233343555
:104FF000363738396162636465660000000000007E
:0850000000B2FF7F0100000077
:08500800B501000800000000E2
:085010009101000800000000FE
:1050180012D020003FC01F003E00180014001900E5
:105028001244E10000093D001C00002000000000BF
:10503800884F0008A84F0008684F000800000000CB
:105048000000000000000000000000000000000058
:105058000000000000000000000000000000000048
:105068000000000000000000000000000000000038
:105078000000000000000000000000000000000028
:105088000000000000000000000000000000000018
:040000050800057179
:00000001FF
